{
  "contractName": "BytesExtraction",
  "abi": [
    {
      "constant": true,
      "inputs": [
        {
          "name": "data",
          "type": "bytes"
        },
        {
          "name": "index",
          "type": "uint256"
        }
      ],
      "name": "extract32bytes",
      "outputs": [
        {
          "name": "",
          "type": "bytes32"
        }
      ],
      "payable": false,
      "stateMutability": "pure",
      "type": "function"
    },
    {
      "constant": true,
      "inputs": [
        {
          "name": "data",
          "type": "bytes"
        },
        {
          "name": "index",
          "type": "uint256"
        }
      ],
      "name": "extractAddress",
      "outputs": [
        {
          "name": "",
          "type": "address"
        }
      ],
      "payable": false,
      "stateMutability": "pure",
      "type": "function"
    },
    {
      "constant": true,
      "inputs": [
        {
          "name": "data",
          "type": "bytes"
        },
        {
          "name": "index",
          "type": "uint256"
        }
      ],
      "name": "extract16bytes",
      "outputs": [
        {
          "name": "",
          "type": "bytes16"
        }
      ],
      "payable": false,
      "stateMutability": "pure",
      "type": "function"
    }
  ],
  "bytecode": "0x610517610030600b82828239805160001a6073146000811461002057610022565bfe5b5030600052607381538281f300730000000000000000000000000000000000000000301460806040526004361061006e576000357c0100000000000000000000000000000000000000000000000000000000900463ffffffff1680630d1e45141461007357806335cf1666146101135780635855da3d14610195575b600080fd5b6100d7600480360381019080803590602001908201803590602001908080601f01602080910402602001604051908101604052809392919081815260200183838082843782019150505050505091929192908035906020019092919050505061023b565b60405180826fffffffffffffffffffffffffffffffff19166fffffffffffffffffffffffffffffffff1916815260200191505060405180910390f35b610177600480360381019080803590602001908201803590602001908080601f016020809104026020016040519081016040528093929190818152602001838380828437820191505050505050919291929080359060200190929190505050610328565b60405180826000191660001916815260200191505060405180910390f35b6101f9600480360381019080803590602001908201803590602001908080601f016020809104026020016040519081016040528093929190818152602001838380828437820191505050505050919291929080359060200190929190505050610406565b604051808273ffffffffffffffffffffffffffffffffffffffff1673ffffffffffffffffffffffffffffffffffffffff16815260200191505060405180910390f35b60008060008090505b601081101561031d576008810260ff7f0100000000000000000000000000000000000000000000000000000000000000028683870181518110151561028557fe5b9060200101517f010000000000000000000000000000000000000000000000000000000000000090047f010000000000000000000000000000000000000000000000000000000000000002167effffffffffffffffffffffffffffffffffffffffffffffffffffffffffffff19166fffffffffffffffffffffffffffffffff19169060020a9004821791508080600101915050610244565b819250505092915050565b60008060008090505b60208110156103fb576008810260ff7f0100000000000000000000000000000000000000000000000000000000000000028683870181518110151561037257fe5b9060200101517f010000000000000000000000000000000000000000000000000000000000000090047f010000000000000000000000000000000000000000000000000000000000000002167effffffffffffffffffffffffffffffffffffffffffffffffffffffffffffff1916600019169060020a9004821791508080600101915050610331565b819250505092915050565b60008060008090505b60148110156104dc576008600c82010260ff7f0100000000000000000000000000000000000000000000000000000000000000028683870181518110151561045357fe5b9060200101517f010000000000000000000000000000000000000000000000000000000000000090047f010000000000000000000000000000000000000000000000000000000000000002167effffffffffffffffffffffffffffffffffffffffffffffffffffffffffffff1916600019169060020a900482179150808060010191505061040f565b816001900492505050929150505600a165627a7a723058203a26516cf3bffa76410d1c17c4693bd8e4de07cc93876b67c2eb00e0284c1cd30029",
  "source": "pragma solidity 0.4.24;\n\n/** This contract is library which is used to deal with\n * bytes. It takes the data in the form of bytes and converts\n * it into actual data we need.\n */\n\nlibrary BytesExtraction{\n\n\n    /** \n     * @dev - This function is used to extract 32 byte data\n       @param data - The data in bytes\n       @param index - The position by which data starts\n       @return - It returns the 32 byte data\n     */\n    function extract32bytes(bytes data, uint256 index) public pure returns(bytes32){\n        bytes32 result;\n        for(uint256 i=0; i<32; i++){\n            result |= bytes32(data[index+i] & 0xFF) >> (i*8);\n        }\n        return result;    \n    }\n    \n    /** \n     * @dev - This function is used to extract token account user address from 32 byte data\n       @param data - The data in bytes\n       @param index - The position by which account address starts\n       @return - It returns the account address\n     */\n    function extractAddress(bytes data, uint256 index) public pure returns (address){\n        bytes32 result;\n        for(uint256 i=0; i< 20; i++){\n            result |= bytes32(data[index +i] & 0xFF) >> ((i+12) * 8);\n        }\n        return address(uint256(result));\n    }\n    \n    /** \n     * @dev - This function is used to extract 16 byte data\n       @param data - The data in bytes\n       @param index - The position by which data starts\n       @return - It returns the 16 byte data\n     */\n    function extract16bytes(bytes data, uint256 index) public pure returns(bytes16){\n        bytes16 result;\n        for(uint256 i=0; i< 16; i++){\n            result |= bytes16(data[index +i] & 0xFF) >> (i * 8);\n        }\n        return result;\n    }\n       \n}",
  "sourcePath": "C:\\Users\\vijay_sugali\\Desktop\\FinalChangingOfTheCode\\truffleCode\\contracts\\BytesExtraction.sol",
  "compiler": {
    "name": "solc",
    "version": "0.4.24+commit.e67f0147.Emscripten.clang"
  },
  "schemaVersion": "2.0.1",
  "updatedAt": "2018-08-06T04:36:25.860Z"
}